:020000040000FA
:0400000007EF00F016
:100008002E8288ED02F0B9EF02F09E90E5EC02F046
:1000180057EC02F027502810D8B415EF00F017EF6E
:1000280000F07FEF00F0000E126E000E116E000E51
:100038001A6E010E196E134A142A14BE2DEF00F021
:100048002D0E135C010E1458D8A02DEF00F02FEFE1
:1000580000F04FEF00F0000E186E000E176E000E45
:10006800166E010E156E0D4A0E2A0EBE45EF00F0F3
:100078000E5009E10A0E0D5CD8A045EF00F047EFDD
:1000880000F020EF01F0010E256E000E0E6E000E3E
:100098000D6E20EF01F014BE5BEF00F0145009E183
:1000A800650E135CD8A05BEF00F05DEF00F020EF69
:1000B80001F0000E166E000E156E000E186E010E81
:1000C800176E0F4A102A10BE73EF00F0105009E1A6
:1000D800320E0F5CD8A073EF00F075EF00F07DEFE3
:1000E80000F0010E266E000E106E000E0F6E20EF4F
:1000F80001F020EF01F026EC02F027502810D8B4C8
:1001080088EF00F08AEF00F0F0EF00F0000E146EB8
:10011800000E136E000E206E010E1F6E114A122A79
:1001280012BEA0EF00F02D0E115C010E1258D8A0DF
:10013800A0EF00F0A2EF00F0C2EF00F0000E1E6E7C
:10014800000E1D6E000E1C6E010E1B6E094A0A2A57
:100158000ABEB8EF00F00A5009E10B0E095CD8A0FE
:10016800B8EF00F0BAEF00F020EF01F0010E236EB7
:10017800000E0A6E000E096E20EF01F012BECEEFDF
:1001880000F0125009E1650E115CD8A0CEEF00F026
:10019800D0EF00F020EF01F0000E1C6E000E1B6E79
:1001A800000E1E6E010E1D6E0B4A0C2A0CBEE6EFE9
:1001B80000F00C5009E1320E0B5CD8A0E6EF00F01D
:1001C800E8EF00F07DEF00F0010E246E000E0C6EDB
:1001D800000E0B6E20EF01F0000E146E000E136E71
:1001E800000E126E000E116E000E1A6E000E196EC1
:1001F800000E186E000E176E000E166E000E156EAD
:10020800000E206E000E1F6E000E1E6E000E1D6E7C
:10021800000E1C6E000E1B6E000E106E000E0F6E90
:10022800000E0E6E000E0D6E000E0C6E000E0B6EA4
:10023800000E0A6E000E096E1200FBEF01F0195055
:100248001A10D8B42AEF01F02CEF01F033EF01F0C7
:100258008C2A000E226E010E216E25EF02F01F502F
:100268002010D8B43AEF01F03CEF01F025EF02F08E
:100278008C06000E226E040E216E25EF02F0195036
:100288001A10D8A44AEF01F04CEF01F052EF01F038
:10029800000E226E000E216E25EF02F01750181086
:1002A800D8B459EF01F05BEF01F025EF02F0000E32
:1002B800226E020E216E25EF02F02604D8A467EF05
:1002C80001F069EF01F06CEF01F08C2A000E266E48
:1002D80019501A10D8A473EF01F075EF01F079EFF7
:1002E80001F0000E226E000E216E15501610D8B4C3
:1002F80080EF01F082EF01F025EF02F0000E226E90
:10030800030E216E25EF02F02504D8A48EEF01F02C
:1003180090EF01F093EF01F0000E256E8C2A195032
:100328001A10D8A49AEF01F09CEF01F025EF02F023
:100338004CEF01F01F502010D8A4A5EF01F0A7EF53
:1003480001F0ADEF01F0000E226E000E216EBAEF43
:1003580001F01D501E10D8B4B4EF01F0B6EF01F053
:10036800BAEF01F0000E226E050E216EAAEC02F023
:1003780025EF02F02404D8A4C4EF01F0C6EF01F081
:10038800C9EF01F0000E246E8C061F502010D8A46F
:10039800D0EF01F0D2EF01F0D6EF01F0000E226E9F
:1003A800000E216E1B501C10D8B4DDEF01F0DFEFFA
:1003B80001F0BAEF01F0000E226E060E216EBAEFC0
:1003C80001F02304D8A4EBEF01F0EDEF01F0F0EF1A
:1003D80001F0000E236E8C061F502010D8A4F7EFF2
:1003E80001F0F9EF01F0BAEF01F0A7EF01F021C039
:1003F8002AF022C02BF02B50000AD8B406EF02F0E6
:1004080025EF02F02A50000AD8B423EF01F0010AC0
:10041800D8B443EF01F0030AD8B461EF01F0010A40
:10042800D8B488EF01F0070AD8B49EEF01F0010AAA
:10043800D8B4BEEF01F0030AD8B4E5EF01F025EF18
:1004480002F0120001C003F002C004F081B02FEFE7
:1004580002F033EF02F0296A292A34EF02F0296A00
:100468002950016E026A0150031807E1025004186E
:10047800D8A441EF02F043EF02F052EF02F003502C
:100488000410D8A44AEF02F04CEF02F052EF02F049
:10049800000E286E010E276E56EF02F0000E286E31
:1004A800000E276E120005C007F006C008F080BADB
:1004B80060EF02F064EF02F0296A292A65EF02F082
:1004C800296A2950056E066A0550071807E1065083
:1004D8000818D8A472EF02F074EF02F083EF02F06C
:1004E80007500810D8A47BEF02F07DEF02F083EFED
:1004F80002F0000E286E010E276E87EF02F0000E44
:10050800286E000E276E120006009DA08EEF02F0E6
:1005180090EF02F099EF02F09EA095EF02F097EFAE
:1005280002F099EF02F009EC00F02E9211007D0E16
:10053800CD6EF60ECF6E3B0ECE6ECECF2CF0CFCF5B
:100548002DF09E909D80F0EC02F0120019501A10C8
:10055800D8B4B1EF02F0B3EF02F0B8EF02F08C2A92
:10056800000E226E010E216E120000EE01F0260E22
:10057800EE6AE806FDE12E902E920001CFEF02F020
:10058800E0EC02F0D9EC02F0EDEC02F0EAEC02F05B
:100598009BEC02F01200C4EC02F0F28EF28C21EC1B
:1005A80001F0D3EF02F007EF00F0928A9380000E7B
:1005B800956E000E8C6E1200760ED36E000E9B6E3A
:1005C80012002D50CF6E2CC0CEFF1200D09E9F90EF
:0C05D80012000F0EC16E1200CD80120048
:020000040020DA
:08000000FFFFFFFFFFFFFFFF00
:020000040030CA
:0E000000FF06191EF38381FFFFC0FFE0FF40E3
:00000001FF
