:020000040000FA
:0400000007EF00F016
:0A0008005A8232ED12F03FEF11F0C2
:1010000000202020202053544F5057415443482063
:1010100020202020200020202020205345434F4E18
:10102000442020202020200020202020204D494E38
:10103000555445202020202020002050494331389D
:10104000204578706C6F72657220004D6963726F15
:10105000636869702050494344454D005242303D19
:10106000437472205241353D4E6578740020202033
:101070002020434C4F434B202020202020002020C4
:101080002020202020205241353D4E6578740052AA
:1010900042303D4E6F77205241353D4E65787400A9
:1010A0002020202020484F555220202020202000A2
:0110B000003F
:1010B2003850D8B45FEF08F061EF08F065EF08F040
:1010C200034A042A000E386E04BE71EF08F0045081
:1010D20009E1320E035CD8A071EF08F073EF08F05B
:1010E2007FEF08F001500108016E0250D8A0E82AF3
:1010F2000008026E000E046E000E036E800ED3EC2A
:1011020011F0230E0001606F100E616F93EC11F06D
:1011120023C052F024C053F0000E556E0A0E546ED6
:1011220022EC0CF05250300F08EC12F023C052F0B7
:1011320024C053F0000E556E0A0E546EE0EC0CF013
:101142005250300F08EC12F03A0E08EC12F021C0A7
:1011520052F022C053F0000E556E0A0E546E22EC6D
:101162000CF05250300F08EC12F021C052F022C0A5
:1011720053F0000E556E0A0E546EE0EC0CF0525015
:10118200300F08EC12F03A0E08EC12F00150021087
:10119200D8B4CEEF08F0D0EF08F0EEEF08F01FC0A1
:1011A20052F020C053F0000E556E0A0E546E22EC1F
:1011B2000CF05250300F08EC12F01FC052F020C059
:1011C20053F0000E556E0A0E546EE0EC0CF05250C5
:1011D200300F08EC12F0F5EF08F0250E0001606FF9
:1011E200100E616F93EC11F0230E0001606F100E70
:1011F200616F93EC11F0C00ED3EC11F07E0E000182
:10120200606F100E616F93EC11F0B5EC10F01200EC
:101212003850D8B40FEF09F011EF09F015EF09F0CB
:10122200074A082A000E386E08BE21EF09F008505E
:1012320009E1320E075CD8A021EF09F023EF09F093
:101242002FEF09F005500108056E0650D8A0E82AD4
:101252000008066E000E086E000E076E800ED3ECBC
:1012620011F0230E0001606F100E616F93EC11F00C
:1012720023C052F024C053F0000E556E0A0E546E75
:1012820022EC0CF05250300F08EC12F023C052F056
:1012920024C053F0000E556E0A0E546EE0EC0CF0B2
:1012A2005250300F08EC12F03A0E08EC12F00550D2
:1012B2000610D8B45FEF09F061EF09F07FEF09F093
:1012C20021C052F022C053F0000E556E0A0E546E29
:1012D20022EC0CF05250300F08EC12F021C052F008
:1012E20022C053F0000E556E0A0E546EE0EC0CF064
:1012F2005250300F08EC12F086EF09F0250E000173
:10130200606F100E616F93EC11F03A0E08EC12F060
:101312001FC052F020C053F0000E556E0A0E546EDC
:1013220022EC0CF05250300F08EC12F01FC052F0B9
:1013320020C053F0000E556E0A0E546EE0EC0CF015
:101342005250300F08EC12F0230E0001606F100EA5
:10135200616F93EC11F0C00ED3EC11F07E0E000120
:10136200606F100E616F93EC11F0E3EC10F012005D
:101372003850D8B4BFEF09F0C1EF09F0C5EF09F05A
:101382000B4A0C2A000E386E0CBED1EF09F00C503D
:1013920009E1320E0B5CD8A0D1EF09F0D3EF09F0CE
:1013A200DFEF09F009500108096E0A50D8A0E82AB7
:1013B20000080A6E000E0C6E000E0B6E800ED3EC4F
:1013C20011F0230E0001606F100E616F93EC11F0AB
:1013D20009500A10D8B4F0EF09F0F2EF09F010EF5B
:1013E2000AF023C052F024C053F0000E556E0A0ECC
:1013F200546E22EC0CF05250300F08EC12F023C065
:1014020052F024C053F0000E556E0A0E546EE0ECFA
:101412000CF05250300F08EC12F017EF0AF0250EC4
:101422000001606F100E616F93EC11F03A0E08EC40
:1014320012F021C052F022C053F0000E556E0A0E77
:10144200546E22EC0CF05250300F08EC12F021C016
:1014520052F022C053F0000E556E0A0E546EE0ECAC
:101462000CF05250300F08EC12F03A0E08EC12F069
:101472001FC052F020C053F0000E556E0A0E546E7B
:1014820022EC0CF05250300F08EC12F01FC052F058
:1014920020C053F0000E556E0A0E546EE0EC0CF0B4
:1014A2005250300F08EC12F0230E0001606F100E44
:1014B200616F93EC11F0C00ED3EC11F07E0E0001BF
:1014C200606F100E616F93EC11F011EC11F01200CD
:1014D200800ED3EC11F0230E0001606F100E616FCD
:1014E20093EC11F017C052F018C053F0000E556E75
:1014F2000A0E546E22EC0CF05250300F08EC12F02F
:1015020017C052F018C053F0000E556E0A0E546EFA
:10151200E0EC0CF05250300F08EC12F03A0E08ECEE
:1015220012F019C052F01AC053F0000E556E0A0E96
:10153200546E22EC0CF05250300F08EC12F019C02D
:1015420052F01AC053F0000E556E0A0E546EE0ECC3
:101552000CF05250300F08EC12F03A0E08EC12F078
:101562001BC052F01CC053F0000E556E0A0E546E92
:1015720022EC0CF05250300F08EC12F01BC052F06B
:101582001CC053F0000E556E0A0E546EE0EC0CF0C7
:101592005250300F08EC12F0230E0001606F100E53
:1015A200616F93EC11F0C00ED3EC11F05C0E0001F0
:1015B200606F100E616F93EC11F011501210D8B4DD
:1015C200E5EF0AF0E7EF0AF0E9EF0AF022EC0EF09D
:1015D2001200800ED3EC11F0230E0001606F100E8A
:1015E200616F93EC11F023C052F024C053F0000E4F
:1015F200556E0A0E546E22EC0CF05250300F08EC6D
:1016020012F023C052F024C053F0000E556E0A0EA1
:10161200546EE0EC0CF05250300F08EC12F03A0E1F
:1016220008EC12F021C052F022C053F0000E556EA9
:101632000A0E546E22EC0CF05250300F08EC12F0ED
:1016420021C052F022C053F0000E556E0A0E546EA5
:10165200E0EC0CF05250300F08EC12F03A0E08ECAD
:1016620012F01FC052F020C053F0000E556E0A0E49
:10167200546E22EC0CF05250300F08EC12F01FC0E6
:1016820052F020C053F0000E556E0A0E546EE0EC7C
:101692000CF05250300F08EC12F0230E0001606F74
:1016A200100E616F93EC11F012003804D8A45CEFB5
:1016B2000BF05EEF0BF0BCEF0BF01D4A1E2A1EBEB4
:1016C2006CEF0BF01E5009E1640E1D5CD8A06CEFAC
:1016D2000BF06EEF0BF074EF0BF0000E1E6E000EAF
:1016E2001D6E1F4A202A20BE80EF0BF0205009E118
:1016F2003C0E1F5CD8A080EF0BF082EF0BF088EF5E
:101702000BF0000E206E000E1F6E214A222A22BE0E
:1017120094EF0BF0225009E13C0E215CD8A094EF2B
:101722000BF096EF0BF09CEF0BF0000E226E000E0A
:10173200216E234A242A24BEA8EF0BF0245009E18B
:10174200180E235CD8A0A8EF0BF0AAEF0BF0AEEFB7
:101752000BF0000E246E000E236EEAEC0AF0000E6F
:10176200386EC00ED3EC11F07E0E0001606F100EC9
:10177200616F93EC11F012009E905950CF6E58C0D9
:10178200CEFF010E386E010E376E80EC10F04D5018
:101792004E10D8B4CFEF0BF0D1EF0BF00FEF0CF0EF
:1017A200000E2A6E010E296E000E166E010E156EC7
:1017B200254A262A26BEE7EF0BF0265009E1640EE1
:1017C200255CD8A0E7EF0BF0E9EF0BF001EF0CF08E
:1017D200010E3C6E274A282A28BEF9EF0BF028504A
:1017E20009E1320E275CD8A0F9EF0BF0FBEF0BF00A
:1017F20001EF0CF0010E3F6E000E286E000E276EF8
:10180200050E0D180E10D8A409EF0CF00BEF0CF01A
:1018120021EF0CF0E9EC0EF021EF0CF0000E3C6E23
:10182200000E286E000E276E000E266E000E256E2C
:10183200000E2A6E000E296E000E3B6E000E3F6EE9
:101842001200000E0001616F55BE2CEF0CF02AEF62
:101852000CF032EF0CF0546C551ED8B0552A010E24
:10186200616F53BE39EF0CF037EF0CF03FEF0CF025
:10187200526C531ED8B0532A010E611B000E636FC7
:10188200000E626F54505510D8B44AEF0CF04CEF72
:101892000CF074EF0CF0010E606F54EF0CF0D89066
:1018A20054365536602B55AE59EF0CF05BEF0CF009
:1018B20050EF0CF0D890623763375450525C555059
:1018C2005358D8A067EF0CF069EF0CF06EEF0CF0F4
:1018D2005450525E5550535A6281D8905532543208
:1018E200602F5BEF0CF06151D8B47AEF0CF07CEF13
:1018F2000CF080EF0CF0626D631FD8B0632B62C0F6
:1019020052F063C053F012003704D8A48BEF0CF0EE
:101912008DEF0CF0DFEF0CF01D4A1E2A1EBE9BEF6E
:101922000CF01E5009E1640E1D5CD8A09BEF0CF078
:101932009DEF0CF0A3EF0CF0000E1E6E000E1D6E5C
:101942001F4A202A20BEAFEF0CF0205009E13C0EC6
:101952001F5CD8A0AFEF0CF0B1EF0CF0B7EF0CF0BA
:10196200000E206E000E1F6E214A222A22BEC3EFF5
:101972000CF0225009E13C0E215CD8A0C3EF0CF020
:10198200C5EF0CF0CBEF0CF0000E226E000E216EB4
:10199200234A242A24BED7EF0CF0245009E1180E62
:1019A200235CD8A0D7EF0CF0D9EF0CF0DDEF0CF0F0
:1019B200000E246E000E236E000E376E1200000E13
:1019C200576E53BEE9EF0CF0E7EF0CF0EFEF0CF0BF
:1019D200526C531ED8B0532A010E576E55BEF6EF05
:1019E2000CF0F4EF0CF0FAEF0CF0546C551ED8B07A
:1019F200552A54505510D8B401EF0DF003EF0DF0F5
:101A020027EF0DF0010E566E0BEF0DF0D890543605
:101A12005536562A55AE10EF0DF012EF0DF007EFC6
:101A22000DF05450525C55505358D8A01BEF0DF096
:101A32001DEF0DF021EF0DF05450525E5550535AE8
:101A4200D89055325432562E12EF0DF05750D8B46A
:101A52002DEF0DF02FEF0DF033EF0DF0526C531E02
:101A6200D8B0532A52C052F053C053F01200425021
:101A72004310D8B43FEF0DF041EF0DF069EF0DF0D8
:101A8200800ED3EC11F0010E0001606F100E616F39
:101A920093EC11F0C00ED3EC11F08F0E0001606FC9
:101AA200100E616F93EC11F0000E4B6E010E4A6E38
:101AB200000E496E010E486E000E476E010E466E14
:101AC200000E456E010E446E000E436E000E426E15
:101AD20015501610D8B470EF0DF072EF0DF087EFBD
:101AE2000DF040504110D8B479EF0DF07BEF0DF0BE
:101AF20083EF0DF0000E126E000E116E000E416E9D
:101B0200000E406E69EC0AF085EC0CF01200BFEF9B
:101B12000DF04BEC10F052505310D8B493EF0DF07F
:101B220095EF0DF0D4EF0DF0010E3A6E000E166E29
:101B3200000E156E0DC08CFF0D4A0E2A0E5009E1E3
:101B4200060E0D5CD8A0A8EF0DF0AAEF0DF0D4EFB1
:101B52000DF0000E0E6E010E0D6ED4EF0DF04BEC7B
:101B620010F052505310D8A4B9EF0DF0BBEF0DF0A6
:101B7200D4EF0DF0000E3A6ED4EF0DF03A50556EE0
:101B8200566A5650000AD8B4C9EF0DF0D4EF0DF0E2
:101B92005550000AD8B48AEF0DF0010AD8B4B0EF5C
:101BA2000DF0D4EF0DF012004A504B10D8B4DCEF18
:101BB2000DF0DEEF0DF016EF0EF0000E416E010E8D
:101BC200406E000E1C6E000E1B6E000E1A6E000E92
:101BD200196E000E186E000E176E800ED3EC11F007
:101BE2006D0E0001606F100E616F93EC11F0C00E6C
:101BF200D3EC11F08F0E0001606F100E616F93EC49
:101C020011F0000E4B6E000E4A6E000E496E010E70
:101C1200486E000E476E010E466E000E456E010EB6
:101C2200446E000E436E010E426E15501610D8B46B
:101C32001DEF0EF01FEF0EF021EF0EF056EC0BF041
:101C420012003804D8A428EF0EF02AEF0EF068EF45
:101C52000EF01B4A1C2A1CBE38EF0EF01C5009E184
:101C6200640E1B5CD8A038EF0EF03AEF0EF040EF96
:101C72000EF0000E1C6E000E1B6E194A1A2A1ABEB6
:101C82004CEF0EF01A5009E13C0E195CD8A04CEF53
:101C92000EF04EEF0EF054EF0EF0000E1A6E000E24
:101CA200196E174A182A18BE60EF0EF0185009E193
:101CB2003C0E175CD8A060EF0EF062EF0EF066EFFC
:101CC2000EF0000E186E000E176E000E386E120027
:101CD20083EF0EF09FEC12F0AAEF0EF0D5EC0DF0B0
:101CE200AAEF0EF0A1EC0FF0AAEF0EF064EC0FF0E9
:101CF200AAEF0EF027EC0FF0AAEF0EF038EC0DF081
:101D0200AAEF0EF00DC064F00EC065F0000165513F
:101D1200000AD8B48FEF0EF0AAEF0EF06451000A59
:101D2200D8B46BEF0EF0010AD8B46FEF0EF0030ACD
:101D3200D8B473EF0EF0010AD8B477EF0EF0070AA9
:101D4200D8B47BEF0EF0010AD8B47FEF0EF0AAEF01
:101D52000EF01200D3EF0EF016EC10F052505310AA
:101D6200D8B4B6EF0EF0B8EF0EF0E8EF0EF0010EB9
:101D7200396E11500108116E1250D8A0E82A0008DD
:101D8200126EE8EF0EF016EC10F052505310D8A479
:101D9200CDEF0EF0CFEF0EF0E8EF0EF0000E396E41
:101DA200E8EF0EF03950556E566A5650000AD8B414
:101DB200DDEF0EF0E8EF0EF05550000AD8B4ADEFAB
:101DC2000EF0010AD8B4C4EF0EF0E8EF0EF01200E4
:101DD20011EF0FF080EC10F04D504E10D8B4F4EF2C
:101DE2000EF0F6EF0EF026EF0FF0010E396E1150E5
:101DF2000108116E1250D8A0E82A0008126E26EFD0
:101E02000FF080EC10F04D504E10D8A40BEF0FF0F5
:101E12000DEF0FF026EF0FF0000E396E26EF0FF0E8
:101E22003950506E516A5150000AD8B41BEF0FF06E
:101E320026EF0FF05050000AD8B4EBEF0EF0010A73
:101E4200D8B402EF0FF026EF0FF012004450451005
:101E5200D8B42EEF0FF030EF0FF058EF0FF0800EE6
:101E6200D3EC11F0160E0001606F100E616F93EC4F
:101E720011F0C00ED3EC11F08F0E0001606F100E46
:101E8200616F93EC11F0000E4B6E010E4A6E000E64
:101E9200496E010E486E000E476E010E466E000E30
:101EA200456E000E446E000E436E010E426E150426
:101EB2001610D8A45FEF0FF061EF0FF063EF0FF091
:101EC20059EC08F0120046504710D8B46BEF0FF0EF
:101ED2006DEF0FF095EF0FF0800ED3EC11F0280E9E
:101EE2000001606F100E616F93EC11F0C00ED3EC25
:101EF20011F08F0E0001606F100E616F93EC11F004
:101F0200000E4B6E010E4A6E000E496E010E486EB7
:101F1200000E476E000E466E000E456E010E446EB8
:101F2200000E436E010E426E15041610D8A49CEFEB
:101F32000FF09EEF0FF0A0EF0FF009EC09F0120086
:101F420048504910D8B4A8EF0FF0AAEF0FF0D2EF23
:101F52000FF0800ED3EC11F0A00E0001606F100E96
:101F6200616F93EC11F0C00ED3EC11F08F0E0001F3
:101F7200606F100E616F93EC11F0000E4B6E010E4C
:101F82004A6E000E496E000E486E000E476E010E3C
:101F9200466E000E456E010E446E000E436E010E3B
:101FA200426E15041610D8A4D9EF0FF0DBEF0FF034
:101FB200DDEF0FF0B9EC09F01200526E52C054F08E
:101FC200000E536E52AEE8EF0FF0EAEF0FF0EDEFB6
:101FD2000FF08B8AEEEF0FF08B9A8BA8F3EF0FF0D6
:101FE200F5EF0FF0F9EF0FF0D8805436FCEF0FF059
:101FF20054505424546E8B8600F000F000F000F030
:1020020000F000F000F000F000F000F000F000F04E
:102012008B96D8905236532A070E536413EF10F062
:1020220015EF10F0E3EF0FF012002DC02FF02EC0CD
:1020320030F02BC02DF02CC02EF081B023EF10F029
:1020420027EF10F0546A542A28EF10F0546A5450C3
:102052002B6E2C6A2B502F1807E12C503018D8A465
:1020620035EF10F037EF10F046EF10F02F50301030
:10207200D8A43EEF10F040EF10F046EF10F0000E43
:10208200536E010E526E4AEF10F0000E536E000EA8
:10209200526E120033C035F034C036F031C033F026
:1020A20032C034F080BA58EF10F05CEF10F0546A8E
:1020B200542A5DEF10F0546A5450316E326A315036
:1020C200351807E132503618D8A46AEF10F06CEFD9
:1020D20010F07BEF10F035503610D8A473EF10F0EB
:1020E20075EF10F07BEF10F0000E536E010E526E82
:1020F2007FEF10F0000E536E000E526E12002DC0D4
:102102002FF02EC030F02BC02DF02CC02EF081B05D
:102112008DEF10F091EF10F04F6A4F2A92EF10F00E
:102122004F6A4F502B6E2C6A2B502F1807E12C5000
:102132003018D8A49FEF10F0A1EF10F0B0EF10F01C
:102142002F503010D8A4A8EF10F0AAEF10F0B0EF83
:1021520010F0000E4E6E010E4D6EB4EF10F0000E38
:102162004E6E000E4D6E120029502A10D8B4BCEFEC
:1021720010F0BEEF10F0C6EF10F03B50D8B4C4EF31
:1021820010F0C6EF10F0CEEF10F03F50D8B4CCEF05
:1021920010F0CEEF10F0E2EF10F0010E1F24526E9D
:1021A200000E2020536E000E556E3C0E546EE0EC75
:1021B2000CF052C01FF053C020F0010E3B6E000E17
:1021C2003F6E120029502A10D8B4EAEF10F0ECEF5B
:1021D20010F0F4EF10F03B50D8B4F2EF10F0F4EF3F
:1021E20010F0FCEF10F03F50D8B4FAEF10F0FCEF13
:1021F20010F010EF11F0010E2124526E000E222079
:10220200536E000E556E3C0E546EE0EC0CF052C054
:1022120021F053C022F0010E3B6E000E3F6E120001
:1022220029502A10D8B418EF11F01AEF11F022EF4A
:1022320011F03B50D8B420EF11F022EF11F02AEF49
:1022420011F03F50D8B428EF11F02AEF11F03EEF11
:1022520011F0010E2324526E000E2420536E000E44
:10226200556E180E546EE0EC0CF052C023F053C0C1
:1022720024F0010E3B6E000E3F6E1200480EF66E09
:10228200250EF76E000EF86E0900F5CF68F0090012
:10229200F5CF69F01C0EF66E250EF76E000EF86E85
:1022A20000EE40F010EE0DF00900F5CFEEFFE55024
:1022B200E150FAE10001676B666B00EE01F03F0E40
:1022C200EE6AE806FDE15A905A92000154EF12F0CC
:1022D2000F501010D8A470EF11F072EF11F092EFBE
:1022E20011F0B3EC11F0000E106E010E0F6E800EA5
:1022F200D3EC11F04B0E0001606F100E616F93EC86
:1023020011F0C00ED3EC11F03A0E0001606F100E06
:10231200616F93EC11F01EEC12F0000E0E6E010EC6
:102322000D6E1200A2EF11F060C0F6FF61C0F7FF60
:10233200000EF86E0800F55008EC12F00001604B38
:10234200612B60C0F6FF61C0F7FF000EF86E080057
:10235200F5500009D8A4B0EF11F0B2EF11F095EFEB
:1023620011F0120085EC12F0979C8E9C8E8C000E60
:1023720062EC12F0010E62EC12F0000E556E120EBB
:102382006FEC12F0320ED3EC11F03C0ED3EC11F0E4
:102392000C0ED3EC11F0010ED3EC11F0060ED3ECBF
:1023A20011F012000001606F000E556E120E6FECFC
:1023B20012F060C055F0130E6FEC12F0040E576E5F
:1023C2003E0EE82EFED7572EFCD7400E556E120E4B
:1023D2006FEC12F0000E556E120E6FEC12F012003E
:1023E200000E896EF30E926E000E8A6E9368000ED6
:1023F2008B6ED70E946E000E8C6E000E956E000ED4
:102402008D6E070E966E928A9380F18E1200576E31
:10241200800E556E120E6FEC12F057C055F0130E6F
:102422006FEC12F0C00E556E120E6FEC12F0000E31
:10243200556E120E6FEC12F01200000E536EA30EC8
:10244200526E550EE82EFED7522EFCD700F0532ABC
:10245200180E53642FEF12F031EF12F020EF12F04A
:10246200120006009DA038EF12F03AEF12F043EF8F
:1024720012F09EA03FEF12F041EF12F043EF12F084
:10248200BDEC0BF05A9211008F0ECD6EFE0ECF6E88
:10249200D30ECE6ECECF58F0CFCF59F09E909D8006
:1024A200A2EC12F012007CEC12F0F28EF28C69ECCB
:1024B2000EF088EC0DF0ABEC0EF058EF12F007EFD7
:1024C20000F0556E8994400EDEEC0FF05550DEECB4
:1024D2000FF0000EDEEC0FF089841200566E899424
:1024E200400EDEEC0FF05650DEEC0FF05550DEECF5
:1024F2000FF08984120095EC12F0F1EC11F09AECD5
:1025020012F045EC12F0120092949488949A9496E8
:1025120089848B888B9A8B9612000100010001003E
:0725220001000100010001AE
:10252A00300ED36E400E9B6E1200D09E0F0EC16EFF
:10253A009F90120069EC11F01200CD801200010088
:020000040020DA
:08000000FFFFFFFFFFFFFFFF00
:020000040030CA
:0E000000FF06191EF38381FFFFC0FFE0FF40E3
:00000001FF
