:020000040000FA
:0400000007EF00F016
:100008003D829FED04F0CAEF04F06DEC04F09E9081
:10001800010E3126000E32223322342235223622B6
:1000280037223822000E1B6E000E1A6EB6EF00F053
:100038001AC001F01BC002F0000E046E0C0E036E15
:10004800FAEC04F0620E0124D96E000E0220DA6E7A
:10005800DF50D8B432EF00F034EF00F0B4EF00F026
:100068001AC001F01BC002F0000E046E0C0E036EE5
:10007800FAEC04F0620E0124D96E000E0220DA6E4A
:10008800DF50D8B44AEF00F04CEF00F0B4EF00F0C6
:100098001AC001F01BC002F0000E046E0C0E036EB5
:1000A800FAEC04F0690E0124D96E000E0220DA6E13
:1000B800DE06000EDD5A1AC001F01BC002F0000E69
:1000C800046E0C0E036EFAEC04F0690E0124D96E6E
:1000D800000E0220DA6E010EDBBE7EEF00F0010E8C
:1000E800DB5006E1DE04D8B07CEF00F07EEF00F0D4
:1000F800B4EF00F01AC001F01BC002F0000E046E4D
:100108000C0E036EFAEC04F06B0E0124D96E000E8F
:100118000220DA6E010EDF6E1AC001F01BC002F079
:10012800000E046E0C0E036EFAEC04F0600E01244F
:10013800D96E000E0220DA6E1AC001F01BC002F060
:10014800000E046E0C0E036EFAEC04F0690E012426
:10015800E16E000E0220E26EDECFE6FFDDCFE5FFA6
:100168001A4A1B2A39501A5C1B50800A186E3A50DA
:10017800800A1858D8A0C3EF00F0C5EF00F01CEFB4
:1001880000F012000DEC05F0F28EF28C640E000106
:10019800D86F000ED96F000EDA6F000EDB6F000EFD
:1001A800DC6F000EDD6F000EDE6F000EDF6F6C0E71
:1001B800E06F0A0EE16F000EE26F000EE36F000EB3
:1001C800E46F65EC01F02C0E0001D86F010ED96FB9
:1001D800000EDA6F000EDB6F000EDC6F000EDD6FB5
:1001E800000EDE6F000EDF6F5A0EE06F0A0EE16F31
:1001F800000EE26F000EE36F000EE46F65EC01F095
:10020800000E0001E66F000EE56FE5C022F0E6C0C3
:1002180023F0000E256E0C0E246EE7EC04F06B0E36
:100228002224D96E000E2320DA6EDF50D8B41FEFD7
:1002380001F021EF01F050EF01F0E5C022F0E6C037
:1002480023F0000E256E0C0E246EE7EC04F0630E0E
:100258002224D96E000E2320DA6E02D83EEF01F078
:100268000500FA6EDE50FD6EDE50FE6EDE50FF6E4B
:10027800FA501200E5C022F0E6C023F0000E256E09
:100288000C0E246EE7EC04F06B0E2224D96E000EDF
:100298002320DA6E000EDF6E0001E54BE62BE6BF89
:1002A8005FEF01F0E65109E10A0EE55DD8A05FEFC6
:1002B80001F061EF01F009EF01F004EF01F007EF41
:1002C80000F039C028F03AC029F0FDEC03F028C04E
:1002D8002FF029C030F02FC022F030C023F0000EDC
:1002E800256E0C0E246EE7EC04F0600E2224D96E05
:1002F800000E2320DA6ED8C0DEFFD9C0DDFF2FC084
:1003080022F030C023F0000E256E0C0E246EE7ECB0
:1003180004F0620E2224D96E000E2320DA6E010E3C
:10032800DF6E2FC022F030C023F0000E256E0C0EB9
:10033800246EE7EC04F0630E2224D96E000E23200D
:10034800DA6EE0C0DEFFE1C0DEFFE2C0DEFFE3C040
:100358002CF0E4C02DF0200E2E6E2FC022F030C0FD
:1003680023F0000E256E0C0E246EE7EC04F0660EEA
:100378002224D96E000E2320DA6E2CC0DEFF2DC099
:10038800DEFF2EC0DEFF2FC022F030C023F0000EAB
:10039800256E0C0E246EE7EC04F06B0E2224D96E49
:1003A800000E2320DA6ED8C0DFFF394A3A2A12003D
:1003B800000E276E25BEE5EF01F0E3EF01F0EBEF4D
:1003C80001F0246C251ED8B0252A010E276E23BE05
:1003D800F2EF01F0F0EF01F0F8EF01F0226C231ECC
:1003E800D8B0232A010E271A000E296E000E286E97
:1003F80024502510D8B403EF02F005EF02F02DEFDA
:1004080002F0010E266E0DEF02F0D8902436253644
:10041800262A25AE12EF02F014EF02F009EF02F0DF
:10042800D890283629362450225C25502358D8A045
:1004380020EF02F022EF02F027EF02F02450225EB4
:100448002550235A2880D89025322432262E14EF9E
:1004580002F02750D8B433EF02F035EF02F039EF4D
:1004680002F0286C291ED8B0292A28C022F029C0F9
:1004780023F01200000E066E04BE47EF02F045EFAF
:1004880002F04DEF02F0036C041ED8B0042A010EEE
:10049800066E02BE54EF02F052EF02F05AEF02F07D
:1004A800016C021ED8B0022A010E061A000E086E50
:1004B800000E076E03500410D8B465EF02F067EF22
:1004C80002F08FEF02F0010E056E6FEF02F0D89088
:1004D80003360436052A04AE74EF02F076EF02F014
:1004E8006BEF02F0D890073608360350015C0450D1
:1004F8000258D8A082EF02F084EF02F089EF02F0F0
:100508000350015E0450025A0780D8900432033227
:10051800052E76EF02F00650D8B495EF02F097EF6B
:1005280002F09BEF02F0076C081ED8B0082A07C03B
:1005380001F008C002F01200000E296E000E286EAD
:1005480028C022F029C023F0000E256E0C0E246E60
:10055800E7EC04F0690E2224D96E000E2320DA6E2F
:10056800000EDE6E000EDD6E28C022F029C023F0DA
:10057800000E256E0C0E246EE7EC04F06B0E2224A0
:10058800D96E000E2320DA6E000EDF6E28C022F02E
:1005980029C023F0000E256E0C0E246EE7EC04F043
:1005A800600E2224D96E000E2320DA6E000EDE6E55
:1005B800000EDD6E28C022F029C023F0000E256E43
:1005C8000C0E246EE7EC04F0620E2224D96E000EA5
:1005D8002320DA6E000EDF6E284A292A29BEFEEF94
:1005E80002F0295009E10A0E285CD8A0FEEF02F0BB
:1005F80000EF03F0A4EF02F01200000E276E23BEF6
:100608000AEF03F008EF03F010EF03F0226C231E4B
:10061800D8B0232A010E276E25BE17EF03F015EF79
:1006280003F01BEF03F0246C251ED8B0252A2450B4
:100638002510D8B422EF03F024EF03F048EF03F0BD
:10064800010E266E2CEF03F0D89024362536262A84
:1006580025AE31EF03F033EF03F028EF03F0245019
:10066800225C25502358D8A03CEF03F03EEF03F05E
:1006780042EF03F02450225E2550235AD8902532A9
:100688002432262E33EF03F02750D8B44EEF03F070
:1006980050EF03F054EF03F0226C231ED8B0232A46
:1006A80022C022F023C023F01200000E2A6E000E92
:1006B8002B6E000E2C6E000E2D6E26502710281063
:1006C8002910D8B46AEF03F06CEF03F0A2EF03F03F
:1006D800010E2E6E76EF03F0D89026362736283690
:1006E80029362E2A29AE7BEF03F07DEF03F070EF59
:1006F80003F0D8902A362B362C362D362650225C1D
:10070800275023582850245829502558D8A08FEF0F
:1007180003F091EF03F09AEF03F02650225E275082
:10072800235A2850245A2950255A2A80D8902932E9
:100738002832273226322E2E7DEF03F02AC022F0EF
:100748002BC023F02CC024F02DC025F01200000E81
:10075800096E000E0A6E000E0B6E000E0C6E055030
:10076800061007100810D8B4BCEF03F0BEEF03F072
:10077800F4EF03F0010E0D6EC8EF03F0D8900536C4
:100788000636073608360D2A08AECDEF03F0CFEF50
:1007980003F0C2EF03F0D89009360A360B360C3650
:1007A8000550015C06500258075003580850045879
:1007B800D8A0E1EF03F0E3EF03F0ECEF03F005500E
:1007C800015E0650025A0750035A0850045A09801D
:1007D800D89008320732063205320D2ECFEF03F0DB
:1007E80009C001F00AC002F00BC003F00CC004F00D
:1007F800120028C022F029C023F0000E256E0A0E30
:10080800246E01EC03F022C02AF023C02BF01DEF68
:1008180004F0010E2A24226E000E2B20236E000EF7
:10082800256E0A0E246E01EC03F022C02AF023C0C4
:100838002BF02AC022F02BC023F0000E256E0C0EE0
:10084800246EE7EC04F0620E2224D96E000E2320F9
:10085800DA6EDF50D8A433EF04F035EF04F00DEF73
:1008680004F02AC028F02BC029F01200030E236ED2
:10087800E80E226E3BC024F03CC025F0DCEC01F011
:1008880022C0DCF023C0DDF0900E226ED00E236E65
:10089800030E246E000E256EDCC026F0DDC027F0A6
:1008A800000E27BEFF0E286E296E59EC03F022C0F9
:1008B800DEF023C0DFF00001DE51FF0ACE6EDE1D40
:1008C8002F6EDF1D306E30C02FF0306A2F50CF6E84
:1008D8001200030E026EE80E016E3BC003F03CC02E
:1008E80004F03EEC02F001C014F002C015F0900EC6
:1008F800016ED00E026E030E036E000E046E14C05D
:1009080005F015C006F0000E06BEFF0E076E086E55
:10091800ABEC03F001C016F002C017F01650FF0A46
:10092800CE6E161C0E6E171C0F6E0FC00EF00F6ADF
:100938000E50CF6E12000600E1CF1CF0E2CF1DF082
:10094800D9CF1EF0DACF1FF0F3CF20F0F4CF21F08B
:100958009DA0B1EF04F0B3EF04F0BCEF04F09EA04B
:10096800B8EF04F0BAEF04F0BCEF04F009EC00F0C3
:1009780021C0F4FF20C0F3FF1FC0DAFF1EC0D9FF5B
:100988001DC0E2FF1CC0E1FF3D921100740EF66E1F
:100998000A0EF76E000EF86E0900F5CF3BF009005D
:1009A800F5CF3CF000EE60F0780EEE6AE806FDE167
:1009B80000EE31F00A0EEE6AE806FDE13D903D9248
:1009C8000001C6EF00F022502402F3CF26F0F4CF46
:1009D80027F022502502F350272623502402F350F3
:1009E800272626C022F027C023F012000150030258
:1009F800F3CF05F0F4CF06F001500402F3500626B9
:100A080002500302F350062605C001F006C002F0AA
:100A1800120028EC05F023EC05F033EC05F030EC7F
:100A280005F01AEC05F0A0EC02F012007D0ECD6E78
:100A38003AEC04F09E909D8038EC05F01200000E10
:100A4800956E000E8C6E1200760ED36E000E9B6EA5
:100A580012000F0E8C6E1200D09E9F9012000F0E87
:0E0A6800C16E12008C2A1200CD8012000A000E
:020000040020DA
:08000000FFFFFFFFFFFFFFFF00
:020000040030CA
:0E000000FF06191EF38381FFFFC0FFE0FF40E3
:00000001FF
